{
  "_format": "hh-sol-artifact-1",
  "contractName": "NFTCollection",
  "sourceName": "contracts/NFTCollection.sol",
  "abi": [
    {
      "inputs": [
        {
          "internalType": "string",
          "name": "_name",
          "type": "string"
        },
        {
          "internalType": "string",
          "name": "_symbol",
          "type": "string"
        },
        {
          "internalType": "address",
          "name": "_creator",
          "type": "address"
        },
        {
          "internalType": "address",
          "name": "_marketplaceContract",
          "type": "address"
        },
        {
          "internalType": "address",
          "name": "_royaltyReceiver",
          "type": "address"
        },
        {
          "internalType": "uint96",
          "name": "_royaltyFeeBps",
          "type": "uint96"
        }
      ],
      "stateMutability": "nonpayable",
      "type": "constructor"
    },
    {
      "inputs": [
        {
          "internalType": "uint256",
          "name": "numerator",
          "type": "uint256"
        },
        {
          "internalType": "uint256",
          "name": "denominator",
          "type": "uint256"
        }
      ],
      "name": "ERC2981InvalidDefaultRoyalty",
      "type": "error"
    },
    {
      "inputs": [
        {
          "internalType": "address",
          "name": "receiver",
          "type": "address"
        }
      ],
      "name": "ERC2981InvalidDefaultRoyaltyReceiver",
      "type": "error"
    },
    {
      "inputs": [
        {
          "internalType": "uint256",
          "name": "tokenId",
          "type": "uint256"
        },
        {
          "internalType": "uint256",
          "name": "numerator",
          "type": "uint256"
        },
        {
          "internalType": "uint256",
          "name": "denominator",
          "type": "uint256"
        }
      ],
      "name": "ERC2981InvalidTokenRoyalty",
      "type": "error"
    },
    {
      "inputs": [
        {
          "internalType": "uint256",
          "name": "tokenId",
          "type": "uint256"
        },
        {
          "internalType": "address",
          "name": "receiver",
          "type": "address"
        }
      ],
      "name": "ERC2981InvalidTokenRoyaltyReceiver",
      "type": "error"
    },
    {
      "inputs": [
        {
          "internalType": "address",
          "name": "sender",
          "type": "address"
        },
        {
          "internalType": "uint256",
          "name": "tokenId",
          "type": "uint256"
        },
        {
          "internalType": "address",
          "name": "owner",
          "type": "address"
        }
      ],
      "name": "ERC721IncorrectOwner",
      "type": "error"
    },
    {
      "inputs": [
        {
          "internalType": "address",
          "name": "operator",
          "type": "address"
        },
        {
          "internalType": "uint256",
          "name": "tokenId",
          "type": "uint256"
        }
      ],
      "name": "ERC721InsufficientApproval",
      "type": "error"
    },
    {
      "inputs": [
        {
          "internalType": "address",
          "name": "approver",
          "type": "address"
        }
      ],
      "name": "ERC721InvalidApprover",
      "type": "error"
    },
    {
      "inputs": [
        {
          "internalType": "address",
          "name": "operator",
          "type": "address"
        }
      ],
      "name": "ERC721InvalidOperator",
      "type": "error"
    },
    {
      "inputs": [
        {
          "internalType": "address",
          "name": "owner",
          "type": "address"
        }
      ],
      "name": "ERC721InvalidOwner",
      "type": "error"
    },
    {
      "inputs": [
        {
          "internalType": "address",
          "name": "receiver",
          "type": "address"
        }
      ],
      "name": "ERC721InvalidReceiver",
      "type": "error"
    },
    {
      "inputs": [
        {
          "internalType": "address",
          "name": "sender",
          "type": "address"
        }
      ],
      "name": "ERC721InvalidSender",
      "type": "error"
    },
    {
      "inputs": [
        {
          "internalType": "uint256",
          "name": "tokenId",
          "type": "uint256"
        }
      ],
      "name": "ERC721NonexistentToken",
      "type": "error"
    },
    {
      "inputs": [
        {
          "internalType": "address",
          "name": "owner",
          "type": "address"
        }
      ],
      "name": "OwnableInvalidOwner",
      "type": "error"
    },
    {
      "inputs": [
        {
          "internalType": "address",
          "name": "account",
          "type": "address"
        }
      ],
      "name": "OwnableUnauthorizedAccount",
      "type": "error"
    },
    {
      "anonymous": false,
      "inputs": [
        {
          "indexed": true,
          "internalType": "address",
          "name": "owner",
          "type": "address"
        },
        {
          "indexed": true,
          "internalType": "address",
          "name": "approved",
          "type": "address"
        },
        {
          "indexed": true,
          "internalType": "uint256",
          "name": "tokenId",
          "type": "uint256"
        }
      ],
      "name": "Approval",
      "type": "event"
    },
    {
      "anonymous": false,
      "inputs": [
        {
          "indexed": true,
          "internalType": "address",
          "name": "owner",
          "type": "address"
        },
        {
          "indexed": true,
          "internalType": "address",
          "name": "operator",
          "type": "address"
        },
        {
          "indexed": false,
          "internalType": "bool",
          "name": "approved",
          "type": "bool"
        }
      ],
      "name": "ApprovalForAll",
      "type": "event"
    },
    {
      "anonymous": false,
      "inputs": [
        {
          "indexed": false,
          "internalType": "address",
          "name": "receiver",
          "type": "address"
        },
        {
          "indexed": false,
          "internalType": "uint96",
          "name": "feeBps",
          "type": "uint96"
        }
      ],
      "name": "DefaultRoyaltyUpdated",
      "type": "event"
    },
    {
      "anonymous": false,
      "inputs": [
        {
          "indexed": true,
          "internalType": "address",
          "name": "oldMarketplace",
          "type": "address"
        },
        {
          "indexed": true,
          "internalType": "address",
          "name": "newMarketplace",
          "type": "address"
        }
      ],
      "name": "MarketplaceUpdated",
      "type": "event"
    },
    {
      "anonymous": false,
      "inputs": [
        {
          "indexed": true,
          "internalType": "uint256",
          "name": "tokenId",
          "type": "uint256"
        },
        {
          "indexed": true,
          "internalType": "address",
          "name": "creator",
          "type": "address"
        },
        {
          "indexed": true,
          "internalType": "address",
          "name": "owner",
          "type": "address"
        },
        {
          "indexed": false,
          "internalType": "string",
          "name": "imageURI",
          "type": "string"
        }
      ],
      "name": "NFTMinted",
      "type": "event"
    },
    {
      "anonymous": false,
      "inputs": [
        {
          "indexed": true,
          "internalType": "address",
          "name": "previousOwner",
          "type": "address"
        },
        {
          "indexed": true,
          "internalType": "address",
          "name": "newOwner",
          "type": "address"
        }
      ],
      "name": "OwnershipTransferred",
      "type": "event"
    },
    {
      "anonymous": false,
      "inputs": [
        {
          "indexed": true,
          "internalType": "uint256",
          "name": "tokenId",
          "type": "uint256"
        },
        {
          "indexed": false,
          "internalType": "address",
          "name": "receiver",
          "type": "address"
        },
        {
          "indexed": false,
          "internalType": "uint96",
          "name": "feeBps",
          "type": "uint96"
        }
      ],
      "name": "TokenRoyaltyUpdated",
      "type": "event"
    },
    {
      "anonymous": false,
      "inputs": [
        {
          "indexed": true,
          "internalType": "address",
          "name": "from",
          "type": "address"
        },
        {
          "indexed": true,
          "internalType": "address",
          "name": "to",
          "type": "address"
        },
        {
          "indexed": true,
          "internalType": "uint256",
          "name": "tokenId",
          "type": "uint256"
        }
      ],
      "name": "Transfer",
      "type": "event"
    },
    {
      "inputs": [
        {
          "internalType": "address",
          "name": "to",
          "type": "address"
        },
        {
          "internalType": "uint256",
          "name": "tokenId",
          "type": "uint256"
        }
      ],
      "name": "approve",
      "outputs": [],
      "stateMutability": "nonpayable",
      "type": "function"
    },
    {
      "inputs": [
        {
          "internalType": "address",
          "name": "owner",
          "type": "address"
        }
      ],
      "name": "balanceOf",
      "outputs": [
        {
          "internalType": "uint256",
          "name": "",
          "type": "uint256"
        }
      ],
      "stateMutability": "view",
      "type": "function"
    },
    {
      "inputs": [],
      "name": "deleteDefaultRoyalty",
      "outputs": [],
      "stateMutability": "nonpayable",
      "type": "function"
    },
    {
      "inputs": [
        {
          "internalType": "uint256",
          "name": "tokenId",
          "type": "uint256"
        }
      ],
      "name": "getApproved",
      "outputs": [
        {
          "internalType": "address",
          "name": "",
          "type": "address"
        }
      ],
      "stateMutability": "view",
      "type": "function"
    },
    {
      "inputs": [
        {
          "internalType": "uint256",
          "name": "tokenId",
          "type": "uint256"
        }
      ],
      "name": "getImageURI",
      "outputs": [
        {
          "internalType": "string",
          "name": "",
          "type": "string"
        }
      ],
      "stateMutability": "view",
      "type": "function"
    },
    {
      "inputs": [
        {
          "internalType": "uint256",
          "name": "",
          "type": "uint256"
        }
      ],
      "name": "imageURI",
      "outputs": [
        {
          "internalType": "string",
          "name": "",
          "type": "string"
        }
      ],
      "stateMutability": "view",
      "type": "function"
    },
    {
      "inputs": [
        {
          "internalType": "address",
          "name": "owner",
          "type": "address"
        },
        {
          "internalType": "address",
          "name": "operator",
          "type": "address"
        }
      ],
      "name": "isApprovedForAll",
      "outputs": [
        {
          "internalType": "bool",
          "name": "",
          "type": "bool"
        }
      ],
      "stateMutability": "view",
      "type": "function"
    },
    {
      "inputs": [],
      "name": "marketplaceContract",
      "outputs": [
        {
          "internalType": "address",
          "name": "",
          "type": "address"
        }
      ],
      "stateMutability": "view",
      "type": "function"
    },
    {
      "inputs": [
        {
          "internalType": "address",
          "name": "to",
          "type": "address"
        },
        {
          "internalType": "string",
          "name": "_imageURI",
          "type": "string"
        },
        {
          "internalType": "address",
          "name": "royaltyReceiver",
          "type": "address"
        },
        {
          "internalType": "uint96",
          "name": "royaltyFeeBps",
          "type": "uint96"
        }
      ],
      "name": "mint",
      "outputs": [
        {
          "internalType": "uint256",
          "name": "tokenId",
          "type": "uint256"
        }
      ],
      "stateMutability": "nonpayable",
      "type": "function"
    },
    {
      "inputs": [],
      "name": "name",
      "outputs": [
        {
          "internalType": "string",
          "name": "",
          "type": "string"
        }
      ],
      "stateMutability": "view",
      "type": "function"
    },
    {
      "inputs": [],
      "name": "owner",
      "outputs": [
        {
          "internalType": "address",
          "name": "",
          "type": "address"
        }
      ],
      "stateMutability": "view",
      "type": "function"
    },
    {
      "inputs": [
        {
          "internalType": "uint256",
          "name": "tokenId",
          "type": "uint256"
        }
      ],
      "name": "ownerOf",
      "outputs": [
        {
          "internalType": "address",
          "name": "",
          "type": "address"
        }
      ],
      "stateMutability": "view",
      "type": "function"
    },
    {
      "inputs": [],
      "name": "renounceOwnership",
      "outputs": [],
      "stateMutability": "nonpayable",
      "type": "function"
    },
    {
      "inputs": [
        {
          "internalType": "uint256",
          "name": "tokenId",
          "type": "uint256"
        },
        {
          "internalType": "uint256",
          "name": "salePrice",
          "type": "uint256"
        }
      ],
      "name": "royaltyInfo",
      "outputs": [
        {
          "internalType": "address",
          "name": "receiver",
          "type": "address"
        },
        {
          "internalType": "uint256",
          "name": "amount",
          "type": "uint256"
        }
      ],
      "stateMutability": "view",
      "type": "function"
    },
    {
      "inputs": [
        {
          "internalType": "address",
          "name": "from",
          "type": "address"
        },
        {
          "internalType": "address",
          "name": "to",
          "type": "address"
        },
        {
          "internalType": "uint256",
          "name": "tokenId",
          "type": "uint256"
        }
      ],
      "name": "safeTransferFrom",
      "outputs": [],
      "stateMutability": "nonpayable",
      "type": "function"
    },
    {
      "inputs": [
        {
          "internalType": "address",
          "name": "from",
          "type": "address"
        },
        {
          "internalType": "address",
          "name": "to",
          "type": "address"
        },
        {
          "internalType": "uint256",
          "name": "tokenId",
          "type": "uint256"
        },
        {
          "internalType": "bytes",
          "name": "data",
          "type": "bytes"
        }
      ],
      "name": "safeTransferFrom",
      "outputs": [],
      "stateMutability": "nonpayable",
      "type": "function"
    },
    {
      "inputs": [
        {
          "internalType": "address",
          "name": "operator",
          "type": "address"
        },
        {
          "internalType": "bool",
          "name": "approved",
          "type": "bool"
        }
      ],
      "name": "setApprovalForAll",
      "outputs": [],
      "stateMutability": "nonpayable",
      "type": "function"
    },
    {
      "inputs": [
        {
          "internalType": "address",
          "name": "receiver",
          "type": "address"
        },
        {
          "internalType": "uint96",
          "name": "feeBps",
          "type": "uint96"
        }
      ],
      "name": "setDefaultRoyalty",
      "outputs": [],
      "stateMutability": "nonpayable",
      "type": "function"
    },
    {
      "inputs": [
        {
          "internalType": "bytes4",
          "name": "interfaceId",
          "type": "bytes4"
        }
      ],
      "name": "supportsInterface",
      "outputs": [
        {
          "internalType": "bool",
          "name": "",
          "type": "bool"
        }
      ],
      "stateMutability": "view",
      "type": "function"
    },
    {
      "inputs": [],
      "name": "symbol",
      "outputs": [
        {
          "internalType": "string",
          "name": "",
          "type": "string"
        }
      ],
      "stateMutability": "view",
      "type": "function"
    },
    {
      "inputs": [
        {
          "internalType": "uint256",
          "name": "",
          "type": "uint256"
        }
      ],
      "name": "tokenCreator",
      "outputs": [
        {
          "internalType": "address",
          "name": "",
          "type": "address"
        }
      ],
      "stateMutability": "view",
      "type": "function"
    },
    {
      "inputs": [
        {
          "internalType": "uint256",
          "name": "tokenId",
          "type": "uint256"
        }
      ],
      "name": "tokenURI",
      "outputs": [
        {
          "internalType": "string",
          "name": "",
          "type": "string"
        }
      ],
      "stateMutability": "view",
      "type": "function"
    },
    {
      "inputs": [],
      "name": "totalSupply",
      "outputs": [
        {
          "internalType": "uint256",
          "name": "",
          "type": "uint256"
        }
      ],
      "stateMutability": "view",
      "type": "function"
    },
    {
      "inputs": [
        {
          "internalType": "address",
          "name": "from",
          "type": "address"
        },
        {
          "internalType": "address",
          "name": "to",
          "type": "address"
        },
        {
          "internalType": "uint256",
          "name": "tokenId",
          "type": "uint256"
        }
      ],
      "name": "transferFrom",
      "outputs": [],
      "stateMutability": "nonpayable",
      "type": "function"
    },
    {
      "inputs": [
        {
          "internalType": "address",
          "name": "newOwner",
          "type": "address"
        }
      ],
      "name": "transferOwnership",
      "outputs": [],
      "stateMutability": "nonpayable",
      "type": "function"
    },
    {
      "inputs": [
        {
          "internalType": "address",
          "name": "newMarketplace",
          "type": "address"
        }
      ],
      "name": "updateMarketplace",
      "outputs": [],
      "stateMutability": "nonpayable",
      "type": "function"
    }
  ],
  "bytecode": "0x60806040523480156200001157600080fd5b5060405162001fa138038062001fa18339810160408190526200003491620002c6565b838686600062000045838262000418565b50600162000054828262000418565b5050506001600160a01b0381166200008757604051631e4fbdf760e01b8152600060048201526024015b60405180910390fd5b6200009281620000eb565b50600a80546001600160a01b0319166001600160a01b0385811691909117909155821615801590620000cd57506000816001600160601b0316115b15620000df57620000df82826200013d565b505050505050620004e4565b600880546001600160a01b038381166001600160a01b0319831681179093556040519116919082907f8be0079c531659141344cd1fd0a4f28419497f9722a3daafe3b4186f6b6457e090600090a35050565b6127106001600160601b0382168110156200017e57604051636f483d0960e01b81526001600160601b0383166004820152602481018290526044016200007e565b6001600160a01b038316620001aa57604051635b6cc80560e11b8152600060048201526024016200007e565b50604080518082019091526001600160a01b039092168083526001600160601b039091166020909201829052600160a01b90910217600655565b634e487b7160e01b600052604160045260246000fd5b600082601f8301126200020c57600080fd5b81516001600160401b0380821115620002295762000229620001e4565b604051601f8301601f19908116603f01168101908282118183101715620002545762000254620001e4565b816040528381526020925086838588010111156200027157600080fd5b600091505b8382101562000295578582018301518183018401529082019062000276565b600093810190920192909252949350505050565b80516001600160a01b0381168114620002c157600080fd5b919050565b60008060008060008060c08789031215620002e057600080fd5b86516001600160401b0380821115620002f857600080fd5b620003068a838b01620001fa565b975060208901519150808211156200031d57600080fd5b506200032c89828a01620001fa565b9550506200033d60408801620002a9565b93506200034d60608801620002a9565b92506200035d60808801620002a9565b60a08801519092506001600160601b03811681146200037b57600080fd5b809150509295509295509295565b600181811c908216806200039e57607f821691505b602082108103620003bf57634e487b7160e01b600052602260045260246000fd5b50919050565b601f8211156200041357600081815260208120601f850160051c81016020861015620003ee5750805b601f850160051c820191505b818110156200040f57828155600101620003fa565b5050505b505050565b81516001600160401b03811115620004345762000434620001e4565b6200044c8162000445845462000389565b84620003c5565b602080601f8311600181146200048457600084156200046b5750858301515b600019600386901b1c1916600185901b1785556200040f565b600085815260208120601f198616915b82811015620004b55788860151825594840194600190910190840162000494565b5085821015620004d45787850151600019600388901b60f8161c191681555b5050505050600190811b01905550565b611aad80620004f46000396000f3fe608060405234801561001057600080fd5b506004361061018e5760003560e01c806370a08231116100de578063aa1b103f11610097578063d1bb5cf111610071578063d1bb5cf114610377578063e985e9c51461038a578063eb6363171461039d578063f2fde38b146103b057600080fd5b8063aa1b103f14610349578063b88d4fde14610351578063c87b56dd1461036457600080fd5b806370a08231146102ef578063715018a6146103025780638da5cb5b1461030a5780638f742d161461031b57806395d89b411461032e578063a22cb4651461033657600080fd5b806323b872dd1161014b578063412e5f4911610125578063412e5f49146102a357806342842e0e146102b65780635f0a9378146102c95780636352211e146102dc57600080fd5b806323b872dd146102355780632a55205a1461024857806340c1a0641461027a57600080fd5b806301ffc9a71461019357806304634d8d146101bb57806306fdde03146101d0578063081812fc146101e5578063095ea7b31461021057806318160ddd14610223575b600080fd5b6101a66101a1366004611491565b6103c3565b60405190151581526020015b60405180910390f35b6101ce6101c93660046114e1565b6103d4565b005b6101d8610423565b6040516101b29190611564565b6101f86101f3366004611577565b6104b5565b6040516001600160a01b0390911681526020016101b2565b6101ce61021e366004611590565b6104de565b6009545b6040519081526020016101b2565b6101ce6102433660046115ba565b6104ed565b61025b6102563660046115f6565b61057d565b604080516001600160a01b0390931683526020830191909152016101b2565b6101f8610288366004611577565b600b602052600090815260409020546001600160a01b031681565b6101d86102b1366004611577565b610602565b6101ce6102c43660046115ba565b6106fe565b6102276102d73660046116a4565b61071e565b6101f86102ea366004611577565b610843565b6102276102fd366004611727565b61084e565b6101ce610896565b6008546001600160a01b03166101f8565b6101d8610329366004611577565b6108aa565b6101d8610944565b6101ce610344366004611742565b610953565b6101ce61095e565b6101ce61035f36600461177e565b6109ac565b6101d8610372366004611577565b6109c4565b600a546101f8906001600160a01b031681565b6101a66103983660046117fa565b610a39565b6101ce6103ab366004611727565b610a67565b6101ce6103be366004611727565b610b09565b60006103ce82610b47565b92915050565b6103dc610b6c565b6103e68282610b99565b7fe12d7d5bdb8218a22277dca8f854dd4573a1cea3d3e4808dc567df9eb1c14bf48282604051610417929190611824565b60405180910390a15050565b60606000805461043290611846565b80601f016020809104026020016040519081016040528092919081815260200182805461045e90611846565b80156104ab5780601f10610480576101008083540402835291602001916104ab565b820191906000526020600020905b81548152906001019060200180831161048e57829003601f168201915b5050505050905090565b60006104c082610c3c565b506000828152600460205260409020546001600160a01b03166103ce565b6104e9828233610c75565b5050565b6001600160a01b03821661051c57604051633250574960e11b8152600060048201526024015b60405180910390fd5b6000610529838333610c82565b9050836001600160a01b0316816001600160a01b031614610577576040516364283d7b60e01b81526001600160a01b0380861660048301526024820184905282166044820152606401610513565b50505050565b600082815260076020526040812080548291906001600160a01b03811690600160a01b90046001600160601b0316816105d15750506006546001600160a01b03811690600160a01b90046001600160601b03165b60006127106105e96001600160601b03841689611896565b6105f391906118ad565b92989297509195505050505050565b6000818152600260205260409020546060906001600160a01b03166106605760405162461bcd60e51b8152602060048201526014602482015273151bdad95b88191bd95cc81b9bdd08195e1a5cdd60621b6044820152606401610513565b6000828152600c60205260409020805461067990611846565b80601f01602080910402602001604051908101604052809291908181526020018280546106a590611846565b80156106f25780601f106106c7576101008083540402835291602001916106f2565b820191906000526020600020905b8154815290600101906020018083116106d557829003601f168201915b50505050509050919050565b610719838383604051806020016040528060008152506109ac565b505050565b6000610728610b6c565b60098054906000610738836118cf565b9190505550600954905061074c8582610d7b565b6000818152600c60205260409020610764858261192e565b506000818152600b6020526040902080546001600160a01b031916331790556001600160a01b038316158015906107a457506000826001600160601b0316115b156107ef576107b4818484610d95565b807fe361b60b9164428d036a601ec08552e653bfe8c44389b8a4ebfd47281eb8741a84846040516107e6929190611824565b60405180910390a25b846001600160a01b0316336001600160a01b0316827fc8e51ba44d56c605bd20ad8cb591cfa3f9982310c747620ce20f77fd612bb39b876040516108339190611564565b60405180910390a4949350505050565b60006103ce82610c3c565b60006001600160a01b03821661087a576040516322718ad960e21b815260006004820152602401610513565b506001600160a01b031660009081526003602052604090205490565b61089e610b6c565b6108a86000610e57565b565b600c60205260009081526040902080546108c390611846565b80601f01602080910402602001604051908101604052809291908181526020018280546108ef90611846565b801561093c5780601f106109115761010080835404028352916020019161093c565b820191906000526020600020905b81548152906001019060200180831161091f57829003601f168201915b505050505081565b60606001805461043290611846565b6104e9338383610ea9565b610966610b6c565b6109706000600655565b7fe12d7d5bdb8218a22277dca8f854dd4573a1cea3d3e4808dc567df9eb1c14bf46000806040516109a2929190611824565b60405180910390a1565b6109b78484846104ed565b6105773385858585610f48565b60606109cf82610c3c565b5060006109e760408051602081019091526000815290565b90506000815111610a075760405180602001604052806000815250610a32565b80610a1184611073565b604051602001610a229291906119ee565b6040516020818303038152906040525b9392505050565b6001600160a01b03918216600090815260056020908152604080832093909416825291909152205460ff1690565b610a6f610b6c565b6001600160a01b038116610ab75760405162461bcd60e51b815260206004820152600f60248201526e496e76616c6964206164647265737360881b6044820152606401610513565b600a80546001600160a01b038381166001600160a01b0319831681179093556040519116919082907fc3e7368ef0a668941a4115b651a9c4f3fa3a13cc6ea105bb91e12bcaa932293c90600090a35050565b610b11610b6c565b6001600160a01b038116610b3b57604051631e4fbdf760e01b815260006004820152602401610513565b610b4481610e57565b50565b60006001600160e01b0319821663152a902d60e11b14806103ce57506103ce82611106565b6008546001600160a01b031633146108a85760405163118cdaa760e01b8152336004820152602401610513565b6127106001600160601b038216811015610bd857604051636f483d0960e01b81526001600160601b038316600482015260248101829052604401610513565b6001600160a01b038316610c0257604051635b6cc80560e11b815260006004820152602401610513565b50604080518082019091526001600160a01b039092168083526001600160601b039091166020909201829052600160a01b90910217600655565b6000818152600260205260408120546001600160a01b0316806103ce57604051637e27328960e01b815260048101849052602401610513565b6107198383836001611156565b6000828152600260205260408120546001600160a01b0390811690831615610caf57610caf81848661125c565b6001600160a01b03811615610ced57610ccc600085600080611156565b6001600160a01b038116600090815260036020526040902080546000190190555b6001600160a01b03851615610d1c576001600160a01b0385166000908152600360205260409020805460010190555b60008481526002602052604080822080546001600160a01b0319166001600160a01b0389811691821790925591518793918516917fddf252ad1be2c89b69c2b068fc378daa952ba7f163c4a11628f55a4df523b3ef91a4949350505050565b6104e98282604051806020016040528060008152506112c0565b6127106001600160601b038216811015610ddb5760405163dfd1fc1b60e01b8152600481018590526001600160601b038316602482015260448101829052606401610513565b6001600160a01b038316610e0c57604051634b4f842960e11b81526004810185905260006024820152604401610513565b506040805180820182526001600160a01b0393841681526001600160601b0392831660208083019182526000968752600790529190942093519051909116600160a01b029116179055565b600880546001600160a01b038381166001600160a01b0319831681179093556040519116919082907f8be0079c531659141344cd1fd0a4f28419497f9722a3daafe3b4186f6b6457e090600090a35050565b6001600160a01b038216610edb57604051630b61174360e31b81526001600160a01b0383166004820152602401610513565b6001600160a01b03838116600081815260056020908152604080832094871680845294825291829020805460ff191686151590811790915591519182527f17307eab39ab6107e8899845ad3d59bd9653f200f220920489ca2b5937696c31910160405180910390a3505050565b6001600160a01b0383163b1561106c57604051630a85bd0160e11b81526001600160a01b0384169063150b7a0290610f8a908890889087908790600401611a1d565b6020604051808303816000875af1925050508015610fc5575060408051601f3d908101601f19168201909252610fc291810190611a5a565b60015b61102e573d808015610ff3576040519150601f19603f3d011682016040523d82523d6000602084013e610ff8565b606091505b50805160000361102657604051633250574960e11b81526001600160a01b0385166004820152602401610513565b805160208201fd5b6001600160e01b03198116630a85bd0160e11b1461106a57604051633250574960e11b81526001600160a01b0385166004820152602401610513565b505b5050505050565b60606000611080836112d8565b600101905060008167ffffffffffffffff8111156110a0576110a0611618565b6040519080825280601f01601f1916602001820160405280156110ca576020820181803683370190505b5090508181016020015b600019016f181899199a1a9b1b9c1cb0b131b232b360811b600a86061a8153600a85049450846110d457509392505050565b60006001600160e01b031982166380ac58cd60e01b148061113757506001600160e01b03198216635b5e139f60e01b145b806103ce57506301ffc9a760e01b6001600160e01b03198316146103ce565b808061116a57506001600160a01b03821615155b1561122c57600061117a84610c3c565b90506001600160a01b038316158015906111a65750826001600160a01b0316816001600160a01b031614155b80156111b957506111b78184610a39565b155b156111e25760405163a9fbf51f60e01b81526001600160a01b0384166004820152602401610513565b811561122a5783856001600160a01b0316826001600160a01b03167f8c5be1e5ebec7d5bd14f71427d1e84f3dd0314c0f7b2291e5b200ac8c7c3b92560405160405180910390a45b505b5050600090815260046020526040902080546001600160a01b0319166001600160a01b0392909216919091179055565b6112678383836113b0565b610719576001600160a01b03831661129557604051637e27328960e01b815260048101829052602401610513565b60405163177e802f60e01b81526001600160a01b038316600482015260248101829052604401610513565b6112ca8383611416565b610719336000858585610f48565b60008072184f03e93ff9f4daa797ed6e38ed64bf6a1f0160401b83106113175772184f03e93ff9f4daa797ed6e38ed64bf6a1f0160401b830492506040015b6d04ee2d6d415b85acef81000000008310611343576d04ee2d6d415b85acef8100000000830492506020015b662386f26fc10000831061136157662386f26fc10000830492506010015b6305f5e1008310611379576305f5e100830492506008015b612710831061138d57612710830492506004015b6064831061139f576064830492506002015b600a83106103ce5760010192915050565b60006001600160a01b0383161580159061140e5750826001600160a01b0316846001600160a01b031614806113ea57506113ea8484610a39565b8061140e57506000828152600460205260409020546001600160a01b038481169116145b949350505050565b6001600160a01b03821661144057604051633250574960e11b815260006004820152602401610513565b600061144e83836000610c82565b90506001600160a01b03811615610719576040516339e3563760e11b815260006004820152602401610513565b6001600160e01b031981168114610b4457600080fd5b6000602082840312156114a357600080fd5b8135610a328161147b565b80356001600160a01b03811681146114c557600080fd5b919050565b80356001600160601b03811681146114c557600080fd5b600080604083850312156114f457600080fd5b6114fd836114ae565b915061150b602084016114ca565b90509250929050565b60005b8381101561152f578181015183820152602001611517565b50506000910152565b60008151808452611550816020860160208601611514565b601f01601f19169290920160200192915050565b602081526000610a326020830184611538565b60006020828403121561158957600080fd5b5035919050565b600080604083850312156115a357600080fd5b6115ac836114ae565b946020939093013593505050565b6000806000606084860312156115cf57600080fd5b6115d8846114ae565b92506115e6602085016114ae565b9150604084013590509250925092565b6000806040838503121561160957600080fd5b50508035926020909101359150565b634e487b7160e01b600052604160045260246000fd5b600067ffffffffffffffff8084111561164957611649611618565b604051601f8501601f19908116603f0116810190828211818310171561167157611671611618565b8160405280935085815286868601111561168a57600080fd5b858560208301376000602087830101525050509392505050565b600080600080608085870312156116ba57600080fd5b6116c3856114ae565b9350602085013567ffffffffffffffff8111156116df57600080fd5b8501601f810187136116f057600080fd5b6116ff8782356020840161162e565b93505061170e604086016114ae565b915061171c606086016114ca565b905092959194509250565b60006020828403121561173957600080fd5b610a32826114ae565b6000806040838503121561175557600080fd5b61175e836114ae565b91506020830135801515811461177357600080fd5b809150509250929050565b6000806000806080858703121561179457600080fd5b61179d856114ae565b93506117ab602086016114ae565b925060408501359150606085013567ffffffffffffffff8111156117ce57600080fd5b8501601f810187136117df57600080fd5b6117ee8782356020840161162e565b91505092959194509250565b6000806040838503121561180d57600080fd5b611816836114ae565b915061150b602084016114ae565b6001600160a01b039290921682526001600160601b0316602082015260400190565b600181811c9082168061185a57607f821691505b60208210810361187a57634e487b7160e01b600052602260045260246000fd5b50919050565b634e487b7160e01b600052601160045260246000fd5b80820281158282048414176103ce576103ce611880565b6000826118ca57634e487b7160e01b600052601260045260246000fd5b500490565b6000600182016118e1576118e1611880565b5060010190565b601f82111561071957600081815260208120601f850160051c8101602086101561190f5750805b601f850160051c820191505b8181101561106a5782815560010161191b565b815167ffffffffffffffff81111561194857611948611618565b61195c816119568454611846565b846118e8565b602080601f83116001811461199157600084156119795750858301515b600019600386901b1c1916600185901b17855561106a565b600085815260208120601f198616915b828110156119c0578886015182559484019460019091019084016119a1565b50858210156119de5787850151600019600388901b60f8161c191681555b5050505050600190811b01905550565b60008351611a00818460208801611514565b835190830190611a14818360208801611514565b01949350505050565b6001600160a01b0385811682528416602082015260408101839052608060608201819052600090611a5090830184611538565b9695505050505050565b600060208284031215611a6c57600080fd5b8151610a328161147b56fea2646970667358221220a73cbb7734947bb15d69cbc25da80e842d40df9823e126e106fc8fc4e54622c464736f6c63430008140033",
  "linkReferences": {},
  "deployedLinkReferences": {}
}