{
  "_format": "hh-sol-artifact-1",
  "contractName": "NFTMarketplace",
  "sourceName": "contracts/NFTMarketplace.sol",
  "abi": [
    {
      "inputs": [
        {
          "internalType": "address",
          "name": "_feeReceiver",
          "type": "address"
        }
      ],
      "stateMutability": "nonpayable",
      "type": "constructor"
    },
    {
      "inputs": [],
      "name": "EnforcedPause",
      "type": "error"
    },
    {
      "inputs": [],
      "name": "ExpectedPause",
      "type": "error"
    },
    {
      "inputs": [
        {
          "internalType": "address",
          "name": "owner",
          "type": "address"
        }
      ],
      "name": "OwnableInvalidOwner",
      "type": "error"
    },
    {
      "inputs": [
        {
          "internalType": "address",
          "name": "account",
          "type": "address"
        }
      ],
      "name": "OwnableUnauthorizedAccount",
      "type": "error"
    },
    {
      "inputs": [],
      "name": "ReentrancyGuardReentrantCall",
      "type": "error"
    },
    {
      "anonymous": false,
      "inputs": [
        {
          "indexed": true,
          "internalType": "address",
          "name": "collection",
          "type": "address"
        },
        {
          "indexed": true,
          "internalType": "address",
          "name": "creator",
          "type": "address"
        },
        {
          "indexed": false,
          "internalType": "string",
          "name": "name",
          "type": "string"
        },
        {
          "indexed": false,
          "internalType": "string",
          "name": "symbol",
          "type": "string"
        }
      ],
      "name": "CollectionCreated",
      "type": "event"
    },
    {
      "anonymous": false,
      "inputs": [
        {
          "indexed": true,
          "internalType": "address",
          "name": "oldReceiver",
          "type": "address"
        },
        {
          "indexed": true,
          "internalType": "address",
          "name": "newReceiver",
          "type": "address"
        }
      ],
      "name": "FeeReceiverUpdated",
      "type": "event"
    },
    {
      "anonymous": false,
      "inputs": [
        {
          "indexed": true,
          "internalType": "address",
          "name": "seller",
          "type": "address"
        },
        {
          "indexed": true,
          "internalType": "address",
          "name": "nft",
          "type": "address"
        },
        {
          "indexed": true,
          "internalType": "uint256",
          "name": "tokenId",
          "type": "uint256"
        },
        {
          "indexed": false,
          "internalType": "uint256",
          "name": "price",
          "type": "uint256"
        }
      ],
      "name": "NFTListed",
      "type": "event"
    },
    {
      "anonymous": false,
      "inputs": [
        {
          "indexed": true,
          "internalType": "address",
          "name": "buyer",
          "type": "address"
        },
        {
          "indexed": true,
          "internalType": "address",
          "name": "seller",
          "type": "address"
        },
        {
          "indexed": true,
          "internalType": "address",
          "name": "nft",
          "type": "address"
        },
        {
          "indexed": false,
          "internalType": "uint256",
          "name": "tokenId",
          "type": "uint256"
        },
        {
          "indexed": false,
          "internalType": "uint256",
          "name": "price",
          "type": "uint256"
        },
        {
          "indexed": false,
          "internalType": "address",
          "name": "royaltyReceiver",
          "type": "address"
        },
        {
          "indexed": false,
          "internalType": "uint256",
          "name": "royaltyAmount",
          "type": "uint256"
        },
        {
          "indexed": false,
          "internalType": "uint256",
          "name": "platformFee",
          "type": "uint256"
        }
      ],
      "name": "NFTPurchased",
      "type": "event"
    },
    {
      "anonymous": false,
      "inputs": [
        {
          "indexed": true,
          "internalType": "address",
          "name": "seller",
          "type": "address"
        },
        {
          "indexed": true,
          "internalType": "address",
          "name": "nft",
          "type": "address"
        },
        {
          "indexed": true,
          "internalType": "uint256",
          "name": "tokenId",
          "type": "uint256"
        }
      ],
      "name": "NFTUnlisted",
      "type": "event"
    },
    {
      "anonymous": false,
      "inputs": [
        {
          "indexed": true,
          "internalType": "address",
          "name": "previousOwner",
          "type": "address"
        },
        {
          "indexed": true,
          "internalType": "address",
          "name": "newOwner",
          "type": "address"
        }
      ],
      "name": "OwnershipTransferred",
      "type": "event"
    },
    {
      "anonymous": false,
      "inputs": [
        {
          "indexed": false,
          "internalType": "address",
          "name": "account",
          "type": "address"
        }
      ],
      "name": "Paused",
      "type": "event"
    },
    {
      "anonymous": false,
      "inputs": [
        {
          "indexed": false,
          "internalType": "uint256",
          "name": "oldFeeBps",
          "type": "uint256"
        },
        {
          "indexed": false,
          "internalType": "uint256",
          "name": "newFeeBps",
          "type": "uint256"
        }
      ],
      "name": "PlatformFeeUpdated",
      "type": "event"
    },
    {
      "anonymous": false,
      "inputs": [
        {
          "indexed": true,
          "internalType": "address",
          "name": "seller",
          "type": "address"
        },
        {
          "indexed": true,
          "internalType": "address",
          "name": "nft",
          "type": "address"
        },
        {
          "indexed": true,
          "internalType": "uint256",
          "name": "tokenId",
          "type": "uint256"
        },
        {
          "indexed": false,
          "internalType": "uint256",
          "name": "oldPrice",
          "type": "uint256"
        },
        {
          "indexed": false,
          "internalType": "uint256",
          "name": "newPrice",
          "type": "uint256"
        }
      ],
      "name": "PriceUpdated",
      "type": "event"
    },
    {
      "anonymous": false,
      "inputs": [
        {
          "indexed": false,
          "internalType": "address",
          "name": "account",
          "type": "address"
        }
      ],
      "name": "Unpaused",
      "type": "event"
    },
    {
      "anonymous": false,
      "inputs": [
        {
          "indexed": true,
          "internalType": "address",
          "name": "account",
          "type": "address"
        },
        {
          "indexed": false,
          "internalType": "uint256",
          "name": "amount",
          "type": "uint256"
        }
      ],
      "name": "Withdrawn",
      "type": "event"
    },
    {
      "inputs": [],
      "name": "MAX_FEE_BPS",
      "outputs": [
        {
          "internalType": "uint256",
          "name": "",
          "type": "uint256"
        }
      ],
      "stateMutability": "view",
      "type": "function"
    },
    {
      "inputs": [
        {
          "internalType": "uint256",
          "name": "",
          "type": "uint256"
        }
      ],
      "name": "allCollections",
      "outputs": [
        {
          "internalType": "address",
          "name": "",
          "type": "address"
        }
      ],
      "stateMutability": "view",
      "type": "function"
    },
    {
      "inputs": [
        {
          "internalType": "address",
          "name": "nft",
          "type": "address"
        },
        {
          "internalType": "uint256",
          "name": "tokenId",
          "type": "uint256"
        }
      ],
      "name": "buyNFT",
      "outputs": [],
      "stateMutability": "payable",
      "type": "function"
    },
    {
      "inputs": [
        {
          "internalType": "string",
          "name": "name",
          "type": "string"
        },
        {
          "internalType": "string",
          "name": "symbol",
          "type": "string"
        },
        {
          "internalType": "address",
          "name": "royaltyReceiver",
          "type": "address"
        },
        {
          "internalType": "uint96",
          "name": "royaltyFeeBps",
          "type": "uint96"
        }
      ],
      "name": "createCollection",
      "outputs": [
        {
          "internalType": "address",
          "name": "",
          "type": "address"
        }
      ],
      "stateMutability": "nonpayable",
      "type": "function"
    },
    {
      "inputs": [],
      "name": "feeReceiver",
      "outputs": [
        {
          "internalType": "address",
          "name": "",
          "type": "address"
        }
      ],
      "stateMutability": "view",
      "type": "function"
    },
    {
      "inputs": [],
      "name": "getAllCollections",
      "outputs": [
        {
          "internalType": "address[]",
          "name": "",
          "type": "address[]"
        }
      ],
      "stateMutability": "view",
      "type": "function"
    },
    {
      "inputs": [],
      "name": "getCollectionCount",
      "outputs": [
        {
          "internalType": "uint256",
          "name": "",
          "type": "uint256"
        }
      ],
      "stateMutability": "view",
      "type": "function"
    },
    {
      "inputs": [
        {
          "internalType": "address",
          "name": "nft",
          "type": "address"
        },
        {
          "internalType": "uint256",
          "name": "tokenId",
          "type": "uint256"
        }
      ],
      "name": "getListing",
      "outputs": [
        {
          "components": [
            {
              "internalType": "address",
              "name": "seller",
              "type": "address"
            },
            {
              "internalType": "uint256",
              "name": "price",
              "type": "uint256"
            },
            {
              "internalType": "bool",
              "name": "isActive",
              "type": "bool"
            }
          ],
          "internalType": "struct NFTMarketplace.Listing",
          "name": "",
          "type": "tuple"
        }
      ],
      "stateMutability": "view",
      "type": "function"
    },
    {
      "inputs": [
        {
          "internalType": "address",
          "name": "",
          "type": "address"
        }
      ],
      "name": "isCollectionFromFactory",
      "outputs": [
        {
          "internalType": "bool",
          "name": "",
          "type": "bool"
        }
      ],
      "stateMutability": "view",
      "type": "function"
    },
    {
      "inputs": [
        {
          "internalType": "address",
          "name": "nft",
          "type": "address"
        },
        {
          "internalType": "uint256",
          "name": "tokenId",
          "type": "uint256"
        }
      ],
      "name": "isListed",
      "outputs": [
        {
          "internalType": "bool",
          "name": "",
          "type": "bool"
        }
      ],
      "stateMutability": "view",
      "type": "function"
    },
    {
      "inputs": [
        {
          "internalType": "address",
          "name": "nft",
          "type": "address"
        },
        {
          "internalType": "uint256",
          "name": "tokenId",
          "type": "uint256"
        },
        {
          "internalType": "uint256",
          "name": "price",
          "type": "uint256"
        }
      ],
      "name": "listNFT",
      "outputs": [],
      "stateMutability": "nonpayable",
      "type": "function"
    },
    {
      "inputs": [
        {
          "internalType": "address",
          "name": "",
          "type": "address"
        },
        {
          "internalType": "uint256",
          "name": "",
          "type": "uint256"
        }
      ],
      "name": "listings",
      "outputs": [
        {
          "internalType": "address",
          "name": "seller",
          "type": "address"
        },
        {
          "internalType": "uint256",
          "name": "price",
          "type": "uint256"
        },
        {
          "internalType": "bool",
          "name": "isActive",
          "type": "bool"
        }
      ],
      "stateMutability": "view",
      "type": "function"
    },
    {
      "inputs": [],
      "name": "owner",
      "outputs": [
        {
          "internalType": "address",
          "name": "",
          "type": "address"
        }
      ],
      "stateMutability": "view",
      "type": "function"
    },
    {
      "inputs": [],
      "name": "pause",
      "outputs": [],
      "stateMutability": "nonpayable",
      "type": "function"
    },
    {
      "inputs": [],
      "name": "paused",
      "outputs": [
        {
          "internalType": "bool",
          "name": "",
          "type": "bool"
        }
      ],
      "stateMutability": "view",
      "type": "function"
    },
    {
      "inputs": [
        {
          "internalType": "address",
          "name": "",
          "type": "address"
        }
      ],
      "name": "pendingWithdrawals",
      "outputs": [
        {
          "internalType": "uint256",
          "name": "",
          "type": "uint256"
        }
      ],
      "stateMutability": "view",
      "type": "function"
    },
    {
      "inputs": [],
      "name": "platformFeeBps",
      "outputs": [
        {
          "internalType": "uint256",
          "name": "",
          "type": "uint256"
        }
      ],
      "stateMutability": "view",
      "type": "function"
    },
    {
      "inputs": [],
      "name": "renounceOwnership",
      "outputs": [],
      "stateMutability": "nonpayable",
      "type": "function"
    },
    {
      "inputs": [
        {
          "internalType": "address",
          "name": "newReceiver",
          "type": "address"
        }
      ],
      "name": "setFeeReceiver",
      "outputs": [],
      "stateMutability": "nonpayable",
      "type": "function"
    },
    {
      "inputs": [
        {
          "internalType": "uint256",
          "name": "newFeeBps",
          "type": "uint256"
        }
      ],
      "name": "setPlatformFeeBps",
      "outputs": [],
      "stateMutability": "nonpayable",
      "type": "function"
    },
    {
      "inputs": [
        {
          "internalType": "address",
          "name": "newOwner",
          "type": "address"
        }
      ],
      "name": "transferOwnership",
      "outputs": [],
      "stateMutability": "nonpayable",
      "type": "function"
    },
    {
      "inputs": [
        {
          "internalType": "address",
          "name": "nft",
          "type": "address"
        },
        {
          "internalType": "uint256",
          "name": "tokenId",
          "type": "uint256"
        }
      ],
      "name": "unlistNFT",
      "outputs": [],
      "stateMutability": "nonpayable",
      "type": "function"
    },
    {
      "inputs": [],
      "name": "unpause",
      "outputs": [],
      "stateMutability": "nonpayable",
      "type": "function"
    },
    {
      "inputs": [
        {
          "internalType": "address",
          "name": "nft",
          "type": "address"
        },
        {
          "internalType": "uint256",
          "name": "tokenId",
          "type": "uint256"
        },
        {
          "internalType": "uint256",
          "name": "newPrice",
          "type": "uint256"
        }
      ],
      "name": "updateListingPrice",
      "outputs": [],
      "stateMutability": "nonpayable",
      "type": "function"
    },
    {
      "inputs": [
        {
          "internalType": "address",
          "name": "",
          "type": "address"
        }
      ],
      "name": "userListingCount",
      "outputs": [
        {
          "internalType": "uint256",
          "name": "",
          "type": "uint256"
        }
      ],
      "stateMutability": "view",
      "type": "function"
    },
    {
      "inputs": [],
      "name": "withdraw",
      "outputs": [],
      "stateMutability": "nonpayable",
      "type": "function"
    },
    {
      "stateMutability": "payable",
      "type": "receive"
    }
  ],
  "bytecode": "0x608060405260fa6002553480156200001657600080fd5b5060405162003e1c38038062003e1c83398101604081905262000039916200013c565b600160005533806200006657604051631e4fbdf760e01b8152600060048201526024015b60405180910390fd5b6200007181620000e2565b506001600160a01b038116620000bc5760405162461bcd60e51b815260206004820152600f60248201526e3130b2103332b2a932b1b2b4bb32b960891b60448201526064016200005d565b600380546001600160a01b0319166001600160a01b03929092169190911790556200016e565b600180546001600160a01b03838116610100818102610100600160a81b031985161790945560405193909204169182907f8be0079c531659141344cd1fd0a4f28419497f9722a3daafe3b4186f6b6457e090600090a35050565b6000602082840312156200014f57600080fd5b81516001600160a01b03811681146200016757600080fd5b9392505050565b613c9e806200017e6000396000f3fe608060405260043610620001a45760003560e01c806388700d1c11620000e2578063c580c9421162000095578063efdcd974116200006c578063efdcd974146200056a578063f2fde38b146200058f578063f3f4370314620005b4578063f7232f6714620005e557600080fd5b8063c580c94214620004e0578063cdb3cd251462000505578063d55be8c6146200055257600080fd5b806388700d1c14620003d65780638da5cb5b1462000429578063a82ba76f146200044e578063ad05f1b41462000465578063b3f00674146200048a578063c030001114620004ac57600080fd5b80633f4ba83a1162000158578063715018a6116200012f578063715018a6146200035c57806373222f2714620003745780637fc27efd14620003995780638456cb5914620003be57600080fd5b80633f4ba83a14620002f75780635c975abb146200030f5780636804a958146200033557600080fd5b806207df3014620001b1578063167ef49514620002355780631c10106f146200027357806322dcd13e146200029457806339b1ea3814620002ac5780633ccfd60b14620002dd57600080fd5b36620001ac57005b600080fd5b348015620001be57600080fd5b5062000209620001d036600462001884565b60046020908152600092835260408084209091529082529020805460018201546002909201546001600160a01b03909116919060ff1683565b604080516001600160a01b03909416845260208401929092521515908201526060015b60405180910390f35b3480156200024257600080fd5b506200025a62000254366004620018b3565b6200060a565b6040516001600160a01b0390911681526020016200022c565b3480156200028057600080fd5b506008545b6040519081526020016200022c565b348015620002a157600080fd5b506200028560025481565b348015620002b957600080fd5b5062000285620002cb366004620018cd565b60056020526000908152604090205481565b348015620002ea57600080fd5b50620002f562000635565b005b3480156200030457600080fd5b50620002f562000779565b3480156200031c57600080fd5b5060015460ff165b60405190151581526020016200022c565b3480156200034257600080fd5b506200034d6200078d565b6040516200022c9190620018f4565b3480156200036957600080fd5b50620002f5620007f1565b3480156200038157600080fd5b506200025a62000393366004620019ee565b62000807565b348015620003a657600080fd5b50620002f5620003b836600462001884565b62000900565b348015620003cb57600080fd5b50620002f562000a0c565b348015620003e357600080fd5b50620003fb620003f536600462001884565b62000a20565b6040805182516001600160a01b0316815260208084015190820152918101511515908201526060016200022c565b3480156200043657600080fd5b5060015461010090046001600160a01b03166200025a565b620002f56200045f36600462001884565b62000a92565b3480156200047257600080fd5b50620002f56200048436600462001a92565b62000fef565b3480156200049757600080fd5b506003546200025a906001600160a01b031681565b348015620004b957600080fd5b5062000324620004cb366004620018cd565b60076020526000908152604090205460ff1681565b348015620004ed57600080fd5b50620002f5620004ff366004620018b3565b62001319565b3480156200051257600080fd5b50620003246200052436600462001884565b6001600160a01b03919091166000908152600460209081526040808320938352929052206002015460ff1690565b3480156200055f57600080fd5b50620002856103e881565b3480156200057757600080fd5b50620002f562000589366004620018cd565b620013ab565b3480156200059c57600080fd5b50620002f5620005ae366004620018cd565b6200144e565b348015620005c157600080fd5b5062000285620005d3366004620018cd565b60066020526000908152604090205481565b348015620005f257600080fd5b50620002f56200060436600462001a92565b62001492565b600881815481106200061b57600080fd5b6000918252602090912001546001600160a01b0316905081565b6200063f620015ba565b3360009081526006602052604090205480620006985760405162461bcd60e51b81526020600482015260136024820152726e6f7468696e6720746f20776974686472617760681b60448201526064015b60405180910390fd5b336000818152600660205260408082208290555190919083908381818185875af1925050503d8060008114620006eb576040519150601f19603f3d011682016040523d82523d6000602084013e620006f0565b606091505b5050905080620007355760405162461bcd60e51b815260206004820152600f60248201526e1dda5d1a191c985dc819985a5b1959608a1b60448201526064016200068f565b60405182815233907f7084f5476618d8e60b11ef0d7d3f06914655adb8793e28ff7f018d4c76d505d59060200160405180910390a25050620007776001600055565b565b62000783620015e5565b620007776200161a565b60606008805480602002602001604051908101604052809291908181526020018280548015620007e757602002820191906000526020600020905b81546001600160a01b03168152600190910190602001808311620007c8575b5050505050905090565b620007fb620015e5565b6200077760006200166e565b6000808585333087876040516200081e9062001860565b6200082f9695949392919062001b12565b604051809103906000f0801580156200084c573d6000803e3d6000fd5b506001600160a01b038116600081815260076020526040808220805460ff191660019081179091556008805491820181559092527ff3f7a9fe364faab93b216da50a3214154f22a0a2b415b23a84c8169e8b636ee390910180546001600160a01b031916831790555191925082913391907f5fead977881b23a0dbf2f905699203f29cefea57a576d2d4f412523191258e8490620008ee908b908b9062001b7d565b60405180910390a39695505050505050565b6200090a620016c8565b6001600160a01b03821660009081526004602090815260408083208484529091529020600281015460ff16620009545760405162461bcd60e51b81526004016200068f9062001baf565b80546001600160a01b031633146200099c5760405162461bcd60e51b815260206004820152600a6024820152693737ba1039b2b63632b960b11b60448201526064016200068f565b60028101805460ff19169055336000908152600560205260408120805460019290620009ca90849062001be9565b909155505060405182906001600160a01b0385169033907f5e22415fbc0319574562e44217526b07e663891c4338550fe529eac37e9e0cb290600090a4505050565b62000a16620015e5565b62000777620016ed565b6040805160608101825260008082526020820181905291810191909152506001600160a01b0380831660009081526004602090815260408083208584528252918290208251606081018452815490941684526001810154918401919091526002015460ff161515908201525b92915050565b62000a9c620015ba565b62000aa6620016c8565b6001600160a01b03821660009081526004602090815260408083208484529091529020600281015460ff1662000af05760405162461bcd60e51b81526004016200068f9062001baf565b805460018201546001600160a01b039091169034811462000b445760405162461bcd60e51b815260206004820152600d60248201526c626164206d73672e76616c756560981b60448201526064016200068f565b6040516331a9108f60e11b81526004810185905285906001600160a01b038481169190831690636352211e90602401602060405180830381865afa15801562000b91573d6000803e3d6000fd5b505050506040513d601f19601f8201168201806040525081019062000bb7919062001bff565b6001600160a01b03161462000c445760028401805460ff191690556001600160a01b038316600090815260056020526040812080546001929062000bfd90849062001be9565b909155505060405162461bcd60e51b815260206004820152601660248201527539b2b63632b9103737903637b733b2b91037bbb732b960511b60448201526064016200068f565b60405163020604bf60e21b81526004810186905230906001600160a01b0383169063081812fc90602401602060405180830381865afa15801562000c8c573d6000803e3d6000fd5b505050506040513d601f19601f8201168201806040525081019062000cb2919062001bff565b6001600160a01b0316148062000d36575060405163e985e9c560e01b81526001600160a01b03848116600483015230602483015282169063e985e9c590604401602060405180830381865afa15801562000d10573d6000803e3d6000fd5b505050506040513d601f19601f8201168201806040525081019062000d36919062001c1f565b62000d775760405162461bcd60e51b815260206004820152601060248201526f185c1c1c9bdd985b081c995d9bdad95960821b60448201526064016200068f565b60028401805460ff191690556001600160a01b038316600090815260056020526040812080546001929062000dae90849062001be9565b90915550506002546000906127109062000dc9908562001c43565b62000dd5919062001c5d565b905060008062000de78989876200172b565b90925090508462000df9828562001c80565b111562000e355760405162461bcd60e51b8152602060048201526009602482015268189859081cdc1b1a5d60ba1b60448201526064016200068f565b60008162000e44858862001be9565b62000e50919062001be9565b604051632142170760e11b81526001600160a01b038981166004830152336024830152604482018c9052919250908616906342842e0e90606401600060405180830381600087803b15801562000ea557600080fd5b505af115801562000eba573d6000803e3d6000fd5b50505050600084111562000efa576003546001600160a01b03166000908152600660205260408120805486929062000ef490849062001c80565b90915550505b60008211801562000f1357506001600160a01b03831615155b1562000f49576001600160a01b0383166000908152600660205260408120805484929062000f4390849062001c80565b90915550505b6001600160a01b0387166000908152600660205260408120805483929062000f7390849062001c80565b9091555050604080518a8152602081018890526001600160a01b0385811682840152606082018590526080820187905291518c8316928a169133917f4d3b30dee09e3bcd1de78d6d0843c5bd19a1533adee09b607d7c1e03b9a2e7309181900360a00190a4505050505050505062000feb6001600055565b5050565b62000ff9620016c8565b60008111620010355760405162461bcd60e51b8152602060048201526007602482015266070726963653d360cc1b60448201526064016200068f565b6040516331a9108f60e11b815260048101839052839033906001600160a01b03831690636352211e90602401602060405180830381865afa1580156200107f573d6000803e3d6000fd5b505050506040513d601f19601f82011682018060405250810190620010a5919062001bff565b6001600160a01b031614620010e95760405162461bcd60e51b81526020600482015260096024820152683737ba1037bbb732b960b91b60448201526064016200068f565b60405163020604bf60e21b81526004810184905230906001600160a01b0383169063081812fc90602401602060405180830381865afa15801562001131573d6000803e3d6000fd5b505050506040513d601f19601f8201168201806040525081019062001157919062001bff565b6001600160a01b03161480620011d9575060405163e985e9c560e01b81523360048201523060248201526001600160a01b0382169063e985e9c590604401602060405180830381865afa158015620011b3573d6000803e3d6000fd5b505050506040513d601f19601f82011682018060405250810190620011d9919062001c1f565b620012165760405162461bcd60e51b815260206004820152600c60248201526b1b9bdd08185c1c1c9bdd995960a21b60448201526064016200068f565b6001600160a01b03841660009081526004602090815260408083208684529091529020600281015460ff1615620012815760405162461bcd60e51b815260206004820152600e60248201526d185b1c9958591e481b1a5cdd195960921b60448201526064016200068f565b80546001600160a01b031916339081178255600180830185905560028301805460ff1916821790556000918252600560205260408220805491929091620012ca90849062001c80565b909155505060405183815284906001600160a01b0387169033907fbeab3a2bb824b124a8a1eb465eec003338d61b414db132d37e9b3a984fdcf010906020015b60405180910390a45050505050565b62001323620015e5565b6103e8811115620013665760405162461bcd60e51b815260206004820152600c60248201526b0cccaca40e8dede40d0d2ced60a31b60448201526064016200068f565b600280549082905560408051828152602081018490527fd347e206f25a89b917fc9482f1a2d294d749baa4dc9bde7fb495ee11fe491643910160405180910390a15050565b620013b5620015e5565b6001600160a01b038116620013fc5760405162461bcd60e51b815260206004820152600c60248201526b3130b2103932b1b2b4bb32b960a11b60448201526064016200068f565b600380546001600160a01b038381166001600160a01b0319831681179093556040519116919082907fa92ff4390fe6943f0b30e8fe715dde86f85ab79b2b2c640a10fc094cc4036cc890600090a35050565b62001458620015e5565b6001600160a01b0381166200148457604051631e4fbdf760e01b8152600060048201526024016200068f565b6200148f816200166e565b50565b6200149c620016c8565b60008111620014d85760405162461bcd60e51b8152602060048201526007602482015266070726963653d360cc1b60448201526064016200068f565b6001600160a01b03831660009081526004602090815260408083208584529091529020600281015460ff16620015225760405162461bcd60e51b81526004016200068f9062001baf565b80546001600160a01b031633146200156a5760405162461bcd60e51b815260206004820152600a6024820152693737ba1039b2b63632b960b11b60448201526064016200068f565b60018101805490839055604080518281526020810185905285916001600160a01b0388169133917f9a3f414f907ddb77231900d221b663199d0a42096ca010e25f0bb7292c409b4e91016200130a565b600260005403620015de57604051633ee5aeb560e01b815260040160405180910390fd5b6002600055565b6001546001600160a01b03610100909104163314620007775760405163118cdaa760e01b81523360048201526024016200068f565b620016246200183c565b6001805460ff191690557f5db9ee0a495bf2e6ff9c91a7834c1ba4fdd244a5e8aa4e537bd38aeae4b073aa335b6040516001600160a01b03909116815260200160405180910390a1565b600180546001600160a01b03838116610100818102610100600160a81b031985161790945560405193909204169182907f8be0079c531659141344cd1fd0a4f28419497f9722a3daafe3b4186f6b6457e090600090a35050565b60015460ff1615620007775760405163d93c066560e01b815260040160405180910390fd5b620016f7620016c8565b6001805460ff1916811790557f62e78cea01bee320cd4e420270b5ea74000d11b0c9f74754ebdbfc544b05a2583362001651565b6040516301ffc9a760e01b815263152a902d60e11b600482015260009081906001600160a01b038616906301ffc9a790602401602060405180830381865afa1580156200177c573d6000803e3d6000fd5b505050506040513d601f19601f82011682018060405250810190620017a2919062001c1f565b156200182d5760405163152a902d60e11b8152600481018590526024810184905260009081906001600160a01b03881690632a55205a906044016040805180830381865afa158015620017f9573d6000803e3d6000fd5b505050506040513d601f19601f820116820180604052508101906200181f919062001c96565b909450925062001834915050565b5060009050805b935093915050565b60015460ff166200077757604051638dfc202b60e01b815260040160405180910390fd5b611fa18062001cc883390190565b6001600160a01b03811681146200148f57600080fd5b600080604083850312156200189857600080fd5b8235620018a5816200186e565b946020939093013593505050565b600060208284031215620018c657600080fd5b5035919050565b600060208284031215620018e057600080fd5b8135620018ed816200186e565b9392505050565b6020808252825182820181905260009190848201906040850190845b81811015620019375783516001600160a01b03168352928401929184019160010162001910565b50909695505050505050565b634e487b7160e01b600052604160045260246000fd5b600082601f8301126200196b57600080fd5b813567ffffffffffffffff8082111562001989576200198962001943565b604051601f8301601f19908116603f01168101908282118183101715620019b457620019b462001943565b81604052838152866020858801011115620019ce57600080fd5b836020870160208301376000602085830101528094505050505092915050565b6000806000806080858703121562001a0557600080fd5b843567ffffffffffffffff8082111562001a1e57600080fd5b62001a2c8883890162001959565b9550602087013591508082111562001a4357600080fd5b5062001a528782880162001959565b935050604085013562001a65816200186e565b915060608501356bffffffffffffffffffffffff8116811462001a8757600080fd5b939692955090935050565b60008060006060848603121562001aa857600080fd5b833562001ab5816200186e565b95602085013595506040909401359392505050565b6000815180845260005b8181101562001af25760208185018101518683018201520162001ad4565b506000602082860101526020601f19601f83011685010191505092915050565b60c08152600062001b2760c083018962001aca565b828103602084015262001b3b818962001aca565b6001600160a01b039788166040850152958716606084015250509190931660808201526bffffffffffffffffffffffff90921660a09092019190915292915050565b60408152600062001b92604083018562001aca565b828103602084015262001ba6818562001aca565b95945050505050565b6020808252600a90820152691b9bdd081b1a5cdd195960b21b604082015260600190565b634e487b7160e01b600052601160045260246000fd5b8181038181111562000a8c5762000a8c62001bd3565b60006020828403121562001c1257600080fd5b8151620018ed816200186e565b60006020828403121562001c3257600080fd5b81518015158114620018ed57600080fd5b808202811582820484141762000a8c5762000a8c62001bd3565b60008262001c7b57634e487b7160e01b600052601260045260246000fd5b500490565b8082018082111562000a8c5762000a8c62001bd3565b6000806040838503121562001caa57600080fd5b825162001cb7816200186e565b602093909301519294929350505056fe60806040523480156200001157600080fd5b5060405162001fa138038062001fa18339810160408190526200003491620002c6565b838686600062000045838262000418565b50600162000054828262000418565b5050506001600160a01b0381166200008757604051631e4fbdf760e01b8152600060048201526024015b60405180910390fd5b6200009281620000eb565b50600a80546001600160a01b0319166001600160a01b0385811691909117909155821615801590620000cd57506000816001600160601b0316115b15620000df57620000df82826200013d565b505050505050620004e4565b600880546001600160a01b038381166001600160a01b0319831681179093556040519116919082907f8be0079c531659141344cd1fd0a4f28419497f9722a3daafe3b4186f6b6457e090600090a35050565b6127106001600160601b0382168110156200017e57604051636f483d0960e01b81526001600160601b0383166004820152602481018290526044016200007e565b6001600160a01b038316620001aa57604051635b6cc80560e11b8152600060048201526024016200007e565b50604080518082019091526001600160a01b039092168083526001600160601b039091166020909201829052600160a01b90910217600655565b634e487b7160e01b600052604160045260246000fd5b600082601f8301126200020c57600080fd5b81516001600160401b0380821115620002295762000229620001e4565b604051601f8301601f19908116603f01168101908282118183101715620002545762000254620001e4565b816040528381526020925086838588010111156200027157600080fd5b600091505b8382101562000295578582018301518183018401529082019062000276565b600093810190920192909252949350505050565b80516001600160a01b0381168114620002c157600080fd5b919050565b60008060008060008060c08789031215620002e057600080fd5b86516001600160401b0380821115620002f857600080fd5b620003068a838b01620001fa565b975060208901519150808211156200031d57600080fd5b506200032c89828a01620001fa565b9550506200033d60408801620002a9565b93506200034d60608801620002a9565b92506200035d60808801620002a9565b60a08801519092506001600160601b03811681146200037b57600080fd5b809150509295509295509295565b600181811c908216806200039e57607f821691505b602082108103620003bf57634e487b7160e01b600052602260045260246000fd5b50919050565b601f8211156200041357600081815260208120601f850160051c81016020861015620003ee5750805b601f850160051c820191505b818110156200040f57828155600101620003fa565b5050505b505050565b81516001600160401b03811115620004345762000434620001e4565b6200044c8162000445845462000389565b84620003c5565b602080601f8311600181146200048457600084156200046b5750858301515b600019600386901b1c1916600185901b1785556200040f565b600085815260208120601f198616915b82811015620004b55788860151825594840194600190910190840162000494565b5085821015620004d45787850151600019600388901b60f8161c191681555b5050505050600190811b01905550565b611aad80620004f46000396000f3fe608060405234801561001057600080fd5b506004361061018e5760003560e01c806370a08231116100de578063aa1b103f11610097578063d1bb5cf111610071578063d1bb5cf114610377578063e985e9c51461038a578063eb6363171461039d578063f2fde38b146103b057600080fd5b8063aa1b103f14610349578063b88d4fde14610351578063c87b56dd1461036457600080fd5b806370a08231146102ef578063715018a6146103025780638da5cb5b1461030a5780638f742d161461031b57806395d89b411461032e578063a22cb4651461033657600080fd5b806323b872dd1161014b578063412e5f4911610125578063412e5f49146102a357806342842e0e146102b65780635f0a9378146102c95780636352211e146102dc57600080fd5b806323b872dd146102355780632a55205a1461024857806340c1a0641461027a57600080fd5b806301ffc9a71461019357806304634d8d146101bb57806306fdde03146101d0578063081812fc146101e5578063095ea7b31461021057806318160ddd14610223575b600080fd5b6101a66101a1366004611491565b6103c3565b60405190151581526020015b60405180910390f35b6101ce6101c93660046114e1565b6103d4565b005b6101d8610423565b6040516101b29190611564565b6101f86101f3366004611577565b6104b5565b6040516001600160a01b0390911681526020016101b2565b6101ce61021e366004611590565b6104de565b6009545b6040519081526020016101b2565b6101ce6102433660046115ba565b6104ed565b61025b6102563660046115f6565b61057d565b604080516001600160a01b0390931683526020830191909152016101b2565b6101f8610288366004611577565b600b602052600090815260409020546001600160a01b031681565b6101d86102b1366004611577565b610602565b6101ce6102c43660046115ba565b6106fe565b6102276102d73660046116a4565b61071e565b6101f86102ea366004611577565b610843565b6102276102fd366004611727565b61084e565b6101ce610896565b6008546001600160a01b03166101f8565b6101d8610329366004611577565b6108aa565b6101d8610944565b6101ce610344366004611742565b610953565b6101ce61095e565b6101ce61035f36600461177e565b6109ac565b6101d8610372366004611577565b6109c4565b600a546101f8906001600160a01b031681565b6101a66103983660046117fa565b610a39565b6101ce6103ab366004611727565b610a67565b6101ce6103be366004611727565b610b09565b60006103ce82610b47565b92915050565b6103dc610b6c565b6103e68282610b99565b7fe12d7d5bdb8218a22277dca8f854dd4573a1cea3d3e4808dc567df9eb1c14bf48282604051610417929190611824565b60405180910390a15050565b60606000805461043290611846565b80601f016020809104026020016040519081016040528092919081815260200182805461045e90611846565b80156104ab5780601f10610480576101008083540402835291602001916104ab565b820191906000526020600020905b81548152906001019060200180831161048e57829003601f168201915b5050505050905090565b60006104c082610c3c565b506000828152600460205260409020546001600160a01b03166103ce565b6104e9828233610c75565b5050565b6001600160a01b03821661051c57604051633250574960e11b8152600060048201526024015b60405180910390fd5b6000610529838333610c82565b9050836001600160a01b0316816001600160a01b031614610577576040516364283d7b60e01b81526001600160a01b0380861660048301526024820184905282166044820152606401610513565b50505050565b600082815260076020526040812080548291906001600160a01b03811690600160a01b90046001600160601b0316816105d15750506006546001600160a01b03811690600160a01b90046001600160601b03165b60006127106105e96001600160601b03841689611896565b6105f391906118ad565b92989297509195505050505050565b6000818152600260205260409020546060906001600160a01b03166106605760405162461bcd60e51b8152602060048201526014602482015273151bdad95b88191bd95cc81b9bdd08195e1a5cdd60621b6044820152606401610513565b6000828152600c60205260409020805461067990611846565b80601f01602080910402602001604051908101604052809291908181526020018280546106a590611846565b80156106f25780601f106106c7576101008083540402835291602001916106f2565b820191906000526020600020905b8154815290600101906020018083116106d557829003601f168201915b50505050509050919050565b610719838383604051806020016040528060008152506109ac565b505050565b6000610728610b6c565b60098054906000610738836118cf565b9190505550600954905061074c8582610d7b565b6000818152600c60205260409020610764858261192e565b506000818152600b6020526040902080546001600160a01b031916331790556001600160a01b038316158015906107a457506000826001600160601b0316115b156107ef576107b4818484610d95565b807fe361b60b9164428d036a601ec08552e653bfe8c44389b8a4ebfd47281eb8741a84846040516107e6929190611824565b60405180910390a25b846001600160a01b0316336001600160a01b0316827fc8e51ba44d56c605bd20ad8cb591cfa3f9982310c747620ce20f77fd612bb39b876040516108339190611564565b60405180910390a4949350505050565b60006103ce82610c3c565b60006001600160a01b03821661087a576040516322718ad960e21b815260006004820152602401610513565b506001600160a01b031660009081526003602052604090205490565b61089e610b6c565b6108a86000610e57565b565b600c60205260009081526040902080546108c390611846565b80601f01602080910402602001604051908101604052809291908181526020018280546108ef90611846565b801561093c5780601f106109115761010080835404028352916020019161093c565b820191906000526020600020905b81548152906001019060200180831161091f57829003601f168201915b505050505081565b60606001805461043290611846565b6104e9338383610ea9565b610966610b6c565b6109706000600655565b7fe12d7d5bdb8218a22277dca8f854dd4573a1cea3d3e4808dc567df9eb1c14bf46000806040516109a2929190611824565b60405180910390a1565b6109b78484846104ed565b6105773385858585610f48565b60606109cf82610c3c565b5060006109e760408051602081019091526000815290565b90506000815111610a075760405180602001604052806000815250610a32565b80610a1184611073565b604051602001610a229291906119ee565b6040516020818303038152906040525b9392505050565b6001600160a01b03918216600090815260056020908152604080832093909416825291909152205460ff1690565b610a6f610b6c565b6001600160a01b038116610ab75760405162461bcd60e51b815260206004820152600f60248201526e496e76616c6964206164647265737360881b6044820152606401610513565b600a80546001600160a01b038381166001600160a01b0319831681179093556040519116919082907fc3e7368ef0a668941a4115b651a9c4f3fa3a13cc6ea105bb91e12bcaa932293c90600090a35050565b610b11610b6c565b6001600160a01b038116610b3b57604051631e4fbdf760e01b815260006004820152602401610513565b610b4481610e57565b50565b60006001600160e01b0319821663152a902d60e11b14806103ce57506103ce82611106565b6008546001600160a01b031633146108a85760405163118cdaa760e01b8152336004820152602401610513565b6127106001600160601b038216811015610bd857604051636f483d0960e01b81526001600160601b038316600482015260248101829052604401610513565b6001600160a01b038316610c0257604051635b6cc80560e11b815260006004820152602401610513565b50604080518082019091526001600160a01b039092168083526001600160601b039091166020909201829052600160a01b90910217600655565b6000818152600260205260408120546001600160a01b0316806103ce57604051637e27328960e01b815260048101849052602401610513565b6107198383836001611156565b6000828152600260205260408120546001600160a01b0390811690831615610caf57610caf81848661125c565b6001600160a01b03811615610ced57610ccc600085600080611156565b6001600160a01b038116600090815260036020526040902080546000190190555b6001600160a01b03851615610d1c576001600160a01b0385166000908152600360205260409020805460010190555b60008481526002602052604080822080546001600160a01b0319166001600160a01b0389811691821790925591518793918516917fddf252ad1be2c89b69c2b068fc378daa952ba7f163c4a11628f55a4df523b3ef91a4949350505050565b6104e98282604051806020016040528060008152506112c0565b6127106001600160601b038216811015610ddb5760405163dfd1fc1b60e01b8152600481018590526001600160601b038316602482015260448101829052606401610513565b6001600160a01b038316610e0c57604051634b4f842960e11b81526004810185905260006024820152604401610513565b506040805180820182526001600160a01b0393841681526001600160601b0392831660208083019182526000968752600790529190942093519051909116600160a01b029116179055565b600880546001600160a01b038381166001600160a01b0319831681179093556040519116919082907f8be0079c531659141344cd1fd0a4f28419497f9722a3daafe3b4186f6b6457e090600090a35050565b6001600160a01b038216610edb57604051630b61174360e31b81526001600160a01b0383166004820152602401610513565b6001600160a01b03838116600081815260056020908152604080832094871680845294825291829020805460ff191686151590811790915591519182527f17307eab39ab6107e8899845ad3d59bd9653f200f220920489ca2b5937696c31910160405180910390a3505050565b6001600160a01b0383163b1561106c57604051630a85bd0160e11b81526001600160a01b0384169063150b7a0290610f8a908890889087908790600401611a1d565b6020604051808303816000875af1925050508015610fc5575060408051601f3d908101601f19168201909252610fc291810190611a5a565b60015b61102e573d808015610ff3576040519150601f19603f3d011682016040523d82523d6000602084013e610ff8565b606091505b50805160000361102657604051633250574960e11b81526001600160a01b0385166004820152602401610513565b805160208201fd5b6001600160e01b03198116630a85bd0160e11b1461106a57604051633250574960e11b81526001600160a01b0385166004820152602401610513565b505b5050505050565b60606000611080836112d8565b600101905060008167ffffffffffffffff8111156110a0576110a0611618565b6040519080825280601f01601f1916602001820160405280156110ca576020820181803683370190505b5090508181016020015b600019016f181899199a1a9b1b9c1cb0b131b232b360811b600a86061a8153600a85049450846110d457509392505050565b60006001600160e01b031982166380ac58cd60e01b148061113757506001600160e01b03198216635b5e139f60e01b145b806103ce57506301ffc9a760e01b6001600160e01b03198316146103ce565b808061116a57506001600160a01b03821615155b1561122c57600061117a84610c3c565b90506001600160a01b038316158015906111a65750826001600160a01b0316816001600160a01b031614155b80156111b957506111b78184610a39565b155b156111e25760405163a9fbf51f60e01b81526001600160a01b0384166004820152602401610513565b811561122a5783856001600160a01b0316826001600160a01b03167f8c5be1e5ebec7d5bd14f71427d1e84f3dd0314c0f7b2291e5b200ac8c7c3b92560405160405180910390a45b505b5050600090815260046020526040902080546001600160a01b0319166001600160a01b0392909216919091179055565b6112678383836113b0565b610719576001600160a01b03831661129557604051637e27328960e01b815260048101829052602401610513565b60405163177e802f60e01b81526001600160a01b038316600482015260248101829052604401610513565b6112ca8383611416565b610719336000858585610f48565b60008072184f03e93ff9f4daa797ed6e38ed64bf6a1f0160401b83106113175772184f03e93ff9f4daa797ed6e38ed64bf6a1f0160401b830492506040015b6d04ee2d6d415b85acef81000000008310611343576d04ee2d6d415b85acef8100000000830492506020015b662386f26fc10000831061136157662386f26fc10000830492506010015b6305f5e1008310611379576305f5e100830492506008015b612710831061138d57612710830492506004015b6064831061139f576064830492506002015b600a83106103ce5760010192915050565b60006001600160a01b0383161580159061140e5750826001600160a01b0316846001600160a01b031614806113ea57506113ea8484610a39565b8061140e57506000828152600460205260409020546001600160a01b038481169116145b949350505050565b6001600160a01b03821661144057604051633250574960e11b815260006004820152602401610513565b600061144e83836000610c82565b90506001600160a01b03811615610719576040516339e3563760e11b815260006004820152602401610513565b6001600160e01b031981168114610b4457600080fd5b6000602082840312156114a357600080fd5b8135610a328161147b565b80356001600160a01b03811681146114c557600080fd5b919050565b80356001600160601b03811681146114c557600080fd5b600080604083850312156114f457600080fd5b6114fd836114ae565b915061150b602084016114ca565b90509250929050565b60005b8381101561152f578181015183820152602001611517565b50506000910152565b60008151808452611550816020860160208601611514565b601f01601f19169290920160200192915050565b602081526000610a326020830184611538565b60006020828403121561158957600080fd5b5035919050565b600080604083850312156115a357600080fd5b6115ac836114ae565b946020939093013593505050565b6000806000606084860312156115cf57600080fd5b6115d8846114ae565b92506115e6602085016114ae565b9150604084013590509250925092565b6000806040838503121561160957600080fd5b50508035926020909101359150565b634e487b7160e01b600052604160045260246000fd5b600067ffffffffffffffff8084111561164957611649611618565b604051601f8501601f19908116603f0116810190828211818310171561167157611671611618565b8160405280935085815286868601111561168a57600080fd5b858560208301376000602087830101525050509392505050565b600080600080608085870312156116ba57600080fd5b6116c3856114ae565b9350602085013567ffffffffffffffff8111156116df57600080fd5b8501601f810187136116f057600080fd5b6116ff8782356020840161162e565b93505061170e604086016114ae565b915061171c606086016114ca565b905092959194509250565b60006020828403121561173957600080fd5b610a32826114ae565b6000806040838503121561175557600080fd5b61175e836114ae565b91506020830135801515811461177357600080fd5b809150509250929050565b6000806000806080858703121561179457600080fd5b61179d856114ae565b93506117ab602086016114ae565b925060408501359150606085013567ffffffffffffffff8111156117ce57600080fd5b8501601f810187136117df57600080fd5b6117ee8782356020840161162e565b91505092959194509250565b6000806040838503121561180d57600080fd5b611816836114ae565b915061150b602084016114ae565b6001600160a01b039290921682526001600160601b0316602082015260400190565b600181811c9082168061185a57607f821691505b60208210810361187a57634e487b7160e01b600052602260045260246000fd5b50919050565b634e487b7160e01b600052601160045260246000fd5b80820281158282048414176103ce576103ce611880565b6000826118ca57634e487b7160e01b600052601260045260246000fd5b500490565b6000600182016118e1576118e1611880565b5060010190565b601f82111561071957600081815260208120601f850160051c8101602086101561190f5750805b601f850160051c820191505b8181101561106a5782815560010161191b565b815167ffffffffffffffff81111561194857611948611618565b61195c816119568454611846565b846118e8565b602080601f83116001811461199157600084156119795750858301515b600019600386901b1c1916600185901b17855561106a565b600085815260208120601f198616915b828110156119c0578886015182559484019460019091019084016119a1565b50858210156119de5787850151600019600388901b60f8161c191681555b5050505050600190811b01905550565b60008351611a00818460208801611514565b835190830190611a14818360208801611514565b01949350505050565b6001600160a01b0385811682528416602082015260408101839052608060608201819052600090611a5090830184611538565b9695505050505050565b600060208284031215611a6c57600080fd5b8151610a328161147b56fea2646970667358221220a73cbb7734947bb15d69cbc25da80e842d40df9823e126e106fc8fc4e54622c464736f6c63430008140033a2646970667358221220c451f742e11319cb20d39ccd87dbc48e43992cb07c728688e598792bb7e6706b64736f6c63430008140033",
  "linkReferences": {},
  "deployedLinkReferences": {}
}